{
  "address": "0x5FbDB2315678afecb367f032d93F642f64180aa3",
  "abi": [
    {
      "inputs": [
        {
          "components": [
            {
              "internalType": "string",
              "name": "name",
              "type": "string"
            },
            {
              "internalType": "string",
              "name": "tag",
              "type": "string"
            }
          ],
          "internalType": "struct AMMController.TokenCreationProps[]",
          "name": "_tokens",
          "type": "tuple[]"
        },
        {
          "components": [
            {
              "internalType": "string",
              "name": "name",
              "type": "string"
            },
            {
              "internalType": "string",
              "name": "tag",
              "type": "string"
            }
          ],
          "internalType": "struct AMMController.TokenCreationProps",
          "name": "_stableCurrency",
          "type": "tuple"
        },
        {
          "internalType": "uint256",
          "name": "_initialSupplyForTokens",
          "type": "uint256"
        },
        {
          "internalType": "uint256",
          "name": "_initialConversionRateFromTokenToStable",
          "type": "uint256"
        },
        {
          "internalType": "uint256",
          "name": "_limitNumberOfUsers",
          "type": "uint256"
        },
        {
          "internalType": "uint256",
          "name": "_initialTokensForUsers",
          "type": "uint256"
        }
      ],
      "stateMutability": "nonpayable",
      "type": "constructor"
    },
    {
      "inputs": [],
      "name": "AMMController_AllowanceDifferOrAmountZero",
      "type": "error"
    },
    {
      "inputs": [],
      "name": "AMMController_InvalidTokenPair",
      "type": "error"
    },
    {
      "inputs": [],
      "name": "AMMController_LimitOfUsersExceded",
      "type": "error"
    },
    {
      "inputs": [],
      "name": "AMMController_NotUser",
      "type": "error"
    },
    {
      "inputs": [],
      "name": "AMMController_StableCurrencyIsRequired",
      "type": "error"
    },
    {
      "inputs": [],
      "name": "AMMController_UserAlreadyRegistered",
      "type": "error"
    },
    {
      "inputs": [],
      "name": "AMMController_UsernameInUse",
      "type": "error"
    },
    {
      "anonymous": false,
      "inputs": [
        {
          "indexed": false,
          "internalType": "address",
          "name": "negotiator",
          "type": "address"
        },
        {
          "indexed": false,
          "internalType": "address",
          "name": "fromToken",
          "type": "address"
        },
        {
          "indexed": false,
          "internalType": "address",
          "name": "toToken",
          "type": "address"
        },
        {
          "indexed": false,
          "internalType": "uint256",
          "name": "amountIn",
          "type": "uint256"
        },
        {
          "indexed": false,
          "internalType": "uint256",
          "name": "amountOutReceived",
          "type": "uint256"
        }
      ],
      "name": "TradeExecuted",
      "type": "event"
    },
    {
      "inputs": [
        {
          "internalType": "string",
          "name": "_username",
          "type": "string"
        }
      ],
      "name": "createUser",
      "outputs": [],
      "stateMutability": "nonpayable",
      "type": "function"
    },
    {
      "inputs": [],
      "name": "getAllTokens",
      "outputs": [
        {
          "components": [
            {
              "internalType": "address",
              "name": "tokenAddress",
              "type": "address"
            },
            {
              "internalType": "string",
              "name": "name",
              "type": "string"
            },
            {
              "internalType": "string",
              "name": "tag",
              "type": "string"
            }
          ],
          "internalType": "struct AMMController.GetAllTokensReturns[]",
          "name": "",
          "type": "tuple[]"
        }
      ],
      "stateMutability": "view",
      "type": "function"
    },
    {
      "inputs": [
        {
          "internalType": "address",
          "name": "_token",
          "type": "address"
        }
      ],
      "name": "getPoolForToken",
      "outputs": [
        {
          "internalType": "address",
          "name": "",
          "type": "address"
        }
      ],
      "stateMutability": "view",
      "type": "function"
    },
    {
      "inputs": [
        {
          "internalType": "address",
          "name": "_tokenOfPool",
          "type": "address"
        }
      ],
      "name": "getPoolStableCurrencyReserve",
      "outputs": [
        {
          "internalType": "uint256",
          "name": "",
          "type": "uint256"
        }
      ],
      "stateMutability": "view",
      "type": "function"
    },
    {
      "inputs": [
        {
          "internalType": "address",
          "name": "_tokenOfPool",
          "type": "address"
        }
      ],
      "name": "getPoolTokenReserve",
      "outputs": [
        {
          "internalType": "uint256",
          "name": "",
          "type": "uint256"
        }
      ],
      "stateMutability": "view",
      "type": "function"
    },
    {
      "inputs": [],
      "name": "getStableCurrency",
      "outputs": [
        {
          "internalType": "address",
          "name": "",
          "type": "address"
        }
      ],
      "stateMutability": "view",
      "type": "function"
    },
    {
      "inputs": [
        {
          "internalType": "address",
          "name": "_userAddress",
          "type": "address"
        }
      ],
      "name": "getUserBalanceInStableCurrency",
      "outputs": [
        {
          "internalType": "uint256",
          "name": "",
          "type": "uint256"
        }
      ],
      "stateMutability": "view",
      "type": "function"
    },
    {
      "inputs": [
        {
          "internalType": "address",
          "name": "_userAddress",
          "type": "address"
        },
        {
          "internalType": "address",
          "name": "_token",
          "type": "address"
        }
      ],
      "name": "getUserBalanceInToken",
      "outputs": [
        {
          "internalType": "uint256",
          "name": "",
          "type": "uint256"
        }
      ],
      "stateMutability": "view",
      "type": "function"
    },
    {
      "inputs": [
        {
          "internalType": "address",
          "name": "_fromToken",
          "type": "address"
        },
        {
          "internalType": "address",
          "name": "_toToken",
          "type": "address"
        },
        {
          "internalType": "uint256",
          "name": "_amountIn",
          "type": "uint256"
        }
      ],
      "name": "tradeTokens",
      "outputs": [],
      "stateMutability": "nonpayable",
      "type": "function"
    }
  ],
  "transactionHash": "0xf90c4e644fa679a730966bb915680bc5c57b85f76d0494877df708a11162e8d3",
  "args": [
    [
      {
        "name": "Facu",
        "tag": "FAC"
      },
      {
        "name": "Polo",
        "tag": "POL"
      },
      {
        "name": "Colo",
        "tag": "COL"
      },
      {
        "name": "Jotto",
        "tag": "JOT"
      },
      {
        "name": "Maxi",
        "tag": "MAX"
      },
      {
        "name": "Wais",
        "tag": "WSM"
      },
      {
        "name": "Roni",
        "tag": "RON"
      },
      {
        "name": "Chocho",
        "tag": "CH8"
      },
      {
        "name": "Ian",
        "tag": "IAN"
      },
      {
        "name": "Mastro",
        "tag": "MST"
      },
      {
        "name": "Palmo",
        "tag": "PLM"
      }
    ],
    {
      "name": "Mutante Coin",
      "tag": "MUT"
    },
    2000,
    1000,
    11,
    100
  ],
  "numDeployments": 1,
  "solcInputHash": "d7727219aec2e642caa56069eb7d2068",
  "bytecode": "0x60806040523480156200001157600080fd5b5060405162002d2738038062002d27833981016040819052620000349162000584565b600080546001600160a01b031916331781556006849055600383905560028290558651620000638587620006bc565b6200006f9190620006bc565b846200007c8486620006bc565b620000889190620006bc565b620000949190620006dc565b9050620000b181876000015188602001516200015560201b60201c565b600180546001600160a01b0319166001600160a01b039290921691909117905560005b875181101562000147576200013186898381518110620000f857620000f8620006f2565b6020026020010151600001518a8481518110620001195762000119620006f2565b6020026020010151602001516200019e60201b60201c565b50806200013e8162000708565b915050620000d4565b5050505050505050620007b6565b6000808484846040516200016990620003f2565b620001779392919062000752565b604051809103906000f08015801562000194573d6000803e3d6000fd5b5095945050505050565b6001546000906001600160a01b0316620001cb57604051632830d73360e21b815260040160405180910390fd5b6000848484604051620001de90620003f2565b620001ec9392919062000752565b604051809103906000f08015801562000209573d6000803e3d6000fd5b506006549091508590600090620002219083620006bc565b90506000600160009054906101000a90046001600160a01b03168483856040516200024c9062000400565b6001600160a01b03948516815293909216602084015260408301526060820152608001604051809103906000f0801580156200028c573d6000803e3d6000fd5b5060015460405163a9059cbb60e01b81526001600160a01b0380841660048301526024820187905292935086929182169183169063a9059cbb906044016020604051808303816000875af1158015620002e9573d6000803e3d6000fd5b505050506040513d601f19601f820116820180604052508101906200030f91906200078b565b5060405163a9059cbb60e01b81526001600160a01b0384811660048301526024820186905282169063a9059cbb906044016020604051808303816000875af115801562000360573d6000803e3d6000fd5b505050506040513d601f19601f820116820180604052508101906200038691906200078b565b50600580546000908152600b6020908152604080832080546001600160a01b03199081166001600160a01b038d81169182179093558552600c909352908320805490921690871617905581549190620003df8362000708565b90915550959a9950505050505050505050565b610c78806200189483390190565b61081b806200250c83390190565b634e487b7160e01b600052604160045260246000fd5b604051601f8201601f191681016001600160401b03811182821017156200044f576200044f6200040e565b604052919050565b60005b83811015620004745781810151838201526020016200045a565b50506000910152565b600082601f8301126200048f57600080fd5b81516001600160401b03811115620004ab57620004ab6200040e565b620004c0601f8201601f191660200162000424565b818152846020838601011115620004d657600080fd5b620004e982602083016020870162000457565b949350505050565b6000604082840312156200050457600080fd5b604080519081016001600160401b0380821183831017156200052a576200052a6200040e565b8160405282935084519150808211156200054357600080fd5b62000551868387016200047d565b835260208501519150808211156200056857600080fd5b5062000577858286016200047d565b6020830152505092915050565b60008060008060008060c087890312156200059e57600080fd5b86516001600160401b0380821115620005b657600080fd5b818901915089601f830112620005cb57600080fd5b815181811115620005e057620005e06200040e565b8060051b620005f26020820162000424565b9182526020818501810192908101908d8411156200060f57600080fd5b6020860192505b8383101562000653578251858111156200062f57600080fd5b620006408f6020838a0101620004f1565b8352506020928301929091019062000616565b60208d0151909b509450505050808211156200066e57600080fd5b506200067d89828a01620004f1565b95505060408701519350606087015192506080870151915060a087015190509295509295509295565b634e487b7160e01b600052601160045260246000fd5b8082028115828204841417620006d657620006d6620006a6565b92915050565b80820180821115620006d657620006d6620006a6565b634e487b7160e01b600052603260045260246000fd5b6000600182016200071d576200071d620006a6565b5060010190565b600081518084526200073e81602086016020860162000457565b601f01601f19169290920160200192915050565b8381526060602082015260006200076d606083018562000724565b828103604084015262000781818562000724565b9695505050505050565b6000602082840312156200079e57600080fd5b81518015158114620007af57600080fd5b9392505050565b6110ce80620007c66000396000f3fe608060405234801561001057600080fd5b50600436106100a35760003560e01c806333a9efa211610076578063b39551bb1161005b578063b39551bb14610172578063f1c3e34514610185578063f7055f231461019857600080fd5b806333a9efa21461014a578063507ffba51461015f57600080fd5b806313f38d2d146100a8578063255bfbcc146100d25780632a5c792a146100fe5780632b07437f14610113575b600080fd5b6001546001600160a01b03165b6040516001600160a01b0390911681526020015b60405180910390f35b6100b56100e0366004610ba2565b6001600160a01b039081166000908152600c60205260409020541690565b6101066101ab565b6040516100c99190610c0d565b61013c610121366004610ba2565b6001600160a01b03166000908152600a602052604090205490565b6040519081526020016100c9565b61015d610158366004610ca7565b6103b5565b005b61015d61016d366004610d52565b610839565b61013c610180366004610ba2565b610a4e565b61013c610193366004610dd2565b610ae9565b61013c6101a6366004610ba2565b610b16565b6060600060055467ffffffffffffffff8111156101ca576101ca610ce3565b60405190808252806020026020018201604052801561022857816020015b610215604051806060016040528060006001600160a01b0316815260200160608152602001606081525090565b8152602001906001900390816101e85790505b50905060005b6005548110156103af576000818152600b602052604090205482516001600160a01b0390911690819084908490811061026957610269610e05565b6020026020010151600001906001600160a01b031690816001600160a01b031681525050806001600160a01b03166306fdde036040518163ffffffff1660e01b8152600401600060405180830381865afa1580156102cb573d6000803e3d6000fd5b505050506040513d6000823e601f3d908101601f191682016040526102f39190810190610e1b565b83838151811061030557610305610e05565b602002602001015160200181905250806001600160a01b03166395d89b416040518163ffffffff1660e01b8152600401600060405180830381865afa158015610352573d6000803e3d6000fd5b505050506040513d6000823e601f3d908101601f1916820160405261037a9190810190610e1b565b83838151811061038c5761038c610e05565b6020026020010151604001819052505080806103a790610ea8565b91505061022e565b50919050565b33600090815260076020526040902060020154839060ff16610403576040517f09795e4000000000000000000000000000000000000000000000000000000000815260040160405180910390fd5b6040517fdd62ed3e00000000000000000000000000000000000000000000000000000000815233600482015230602482015282906001600160a01b0383169063dd62ed3e90604401602060405180830381865afa158015610468573d6000803e3d6000fd5b505050506040513d601f19601f8201168201806040525081019061048c9190610ec1565b1415806104995750600182105b156104d0576040517fbd93c6ee00000000000000000000000000000000000000000000000000000000815260040160405180910390fd5b6001546001600160a01b03858116911614801561050657506001600160a01b038381166000908152600c60205260409020541615155b8061054257506001546001600160a01b03848116911614801561054257506001600160a01b038481166000908152600c60205260409020541615155b610578576040517f3ec18a2f00000000000000000000000000000000000000000000000000000000815260040160405180910390fd5b6001600160a01b038481166000908152600c60205260408120549091166105ba57506001600160a01b038084166000908152600c6020526040902054166105d7565b506001600160a01b038085166000908152600c6020526040902054165b6040517f23b872dd0000000000000000000000000000000000000000000000000000000081523360048201526001600160a01b038281166024830152604482018590528316906323b872dd906064016020604051808303816000875af1158015610645573d6000803e3d6000fd5b505050506040513d601f19601f820116820180604052508101906106699190610eda565b506040517f6d069a670000000000000000000000000000000000000000000000000000000081526001600160a01b038681166004830152602482018590523360448301528291600091831690636d069a67906064016020604051808303816000875af11580156106dd573d6000803e3d6000fd5b505050506040513d601f19601f820116820180604052508101906107019190610ec1565b6001549091506001600160a01b039081169088160361077c57336000908152600a602052604081208054879290610739908490610efc565b90915550503360009081526009602090815260408083206001600160a01b038a16845290915281208054839290610771908490610f0f565b909155506107d99050565b3360009081526009602090815260408083206001600160a01b038b168452909152812080548792906107af908490610efc565b9091555050336000908152600a6020526040812080548392906107d3908490610f0f565b90915550505b604080513381526001600160a01b038981166020830152881681830152606081018790526080810183905290517f3fcfb2f2e0146d5be7268f9e4cd3c4c0ce3428f68805db227b7fc378db7519ac9181900360a00190a150505050505050565b336000908152600760205260409020600281015460ff1615610887576040517f8363cd4b00000000000000000000000000000000000000000000000000000000815260040160405180910390fd5b6008826040516108979190610f22565b9081526040519081900360200190205460ff16156108e1576040517f05f2705a00000000000000000000000000000000000000000000000000000000815260040160405180910390fd5b6004546003541161091e576040517f0a3e568a00000000000000000000000000000000000000000000000000000000815260040160405180910390fd5b6004548155600181016109318382610fc1565b5060028101805460ff19166001908117909155604051600890610955908590610f22565b908152604051908190036020019020805491151560ff199092169190911790556004805490600061098583610ea8565b90915550506001546006546002546001600160a01b03909216916000916109ab91611081565b6040517fa9059cbb000000000000000000000000000000000000000000000000000000008152336004820152602481018290529091506001600160a01b0383169063a9059cbb906044016020604051808303816000875af1158015610a14573d6000803e3d6000fd5b505050506040513d601f19601f82011682018060405250810190610a389190610eda565b50336000908152600a6020526040902055505050565b6001600160a01b038082166000908152600c602090815260408083205481517ff1d9f88b000000000000000000000000000000000000000000000000000000008152915193941692839263f1d9f88b92600480820193918290030181865afa158015610abe573d6000803e3d6000fd5b505050506040513d601f19601f82011682018060405250810190610ae29190610ec1565b9392505050565b6001600160a01b038083166000908152600960209081526040808320938516835292905220545b92915050565b6001600160a01b038082166000908152600c602090815260408083205481517fc27d6a02000000000000000000000000000000000000000000000000000000008152915193941692839263c27d6a0292600480820193918290030181865afa158015610abe573d6000803e3d6000fd5b80356001600160a01b0381168114610b9d57600080fd5b919050565b600060208284031215610bb457600080fd5b610ae282610b86565b60005b83811015610bd8578181015183820152602001610bc0565b50506000910152565b60008151808452610bf9816020860160208601610bbd565b601f01601f19169290920160200192915050565b60006020808301818452808551808352604092508286019150828160051b87010184880160005b83811015610c9957603f19898403018552815160606001600160a01b03825116855288820151818a870152610c6b82870182610be1565b91505087820151915084810388860152610c858183610be1565b968901969450505090860190600101610c34565b509098975050505050505050565b600080600060608486031215610cbc57600080fd5b610cc584610b86565b9250610cd360208501610b86565b9150604084013590509250925092565b634e487b7160e01b600052604160045260246000fd5b604051601f8201601f1916810167ffffffffffffffff81118282101715610d2257610d22610ce3565b604052919050565b600067ffffffffffffffff821115610d4457610d44610ce3565b50601f01601f191660200190565b600060208284031215610d6457600080fd5b813567ffffffffffffffff811115610d7b57600080fd5b8201601f81018413610d8c57600080fd5b8035610d9f610d9a82610d2a565b610cf9565b818152856020838501011115610db457600080fd5b81602084016020830137600091810160200191909152949350505050565b60008060408385031215610de557600080fd5b610dee83610b86565b9150610dfc60208401610b86565b90509250929050565b634e487b7160e01b600052603260045260246000fd5b600060208284031215610e2d57600080fd5b815167ffffffffffffffff811115610e4457600080fd5b8201601f81018413610e5557600080fd5b8051610e63610d9a82610d2a565b818152856020838501011115610e7857600080fd5b610e89826020830160208601610bbd565b95945050505050565b634e487b7160e01b600052601160045260246000fd5b600060018201610eba57610eba610e92565b5060010190565b600060208284031215610ed357600080fd5b5051919050565b600060208284031215610eec57600080fd5b81518015158114610ae257600080fd5b81810381811115610b1057610b10610e92565b80820180821115610b1057610b10610e92565b60008251610f34818460208701610bbd565b9190910192915050565b600181811c90821680610f5257607f821691505b6020821081036103af57634e487b7160e01b600052602260045260246000fd5b601f821115610fbc57600081815260208120601f850160051c81016020861015610f995750805b601f850160051c820191505b81811015610fb857828155600101610fa5565b5050505b505050565b815167ffffffffffffffff811115610fdb57610fdb610ce3565b610fef81610fe98454610f3e565b84610f72565b602080601f831160018114611024576000841561100c5750858301515b600019600386901b1c1916600185901b178555610fb8565b600085815260208120601f198616915b8281101561105357888601518255948401946001909101908401611034565b50858210156110715787850151600019600388901b60f8161c191681555b5050505050600190811b01905550565b8082028115828204841417610b1057610b10610e9256fea26469706673582212206880d114a84e162aaeb5020e36e260b2e6ce0d83549d7751ed85477602c5a0b264736f6c6343000814003360806040523480156200001157600080fd5b5060405162000c7838038062000c788339810160408190526200003491620002ab565b81816003620000448382620003ae565b506004620000538282620003ae565b5050506200006833846200007160201b60201c565b505050620004a2565b6001600160a01b038216620000a15760405163ec442f0560e01b8152600060048201526024015b60405180910390fd5b620000af60008383620000b3565b5050565b6001600160a01b038316620000e2578060026000828254620000d691906200047a565b90915550620001569050565b6001600160a01b03831660009081526020819052604090205481811015620001375760405163391434e360e21b81526001600160a01b0385166004820152602481018290526044810183905260640162000098565b6001600160a01b03841660009081526020819052604090209082900390555b6001600160a01b038216620001745760028054829003905562000193565b6001600160a01b03821660009081526020819052604090208054820190555b816001600160a01b0316836001600160a01b03167fddf252ad1be2c89b69c2b068fc378daa952ba7f163c4a11628f55a4df523b3ef83604051620001d991815260200190565b60405180910390a3505050565b634e487b7160e01b600052604160045260246000fd5b600082601f8301126200020e57600080fd5b81516001600160401b03808211156200022b576200022b620001e6565b604051601f8301601f19908116603f01168101908282118183101715620002565762000256620001e6565b816040528381526020925086838588010111156200027357600080fd5b600091505b8382101562000297578582018301518183018401529082019062000278565b600093810190920192909252949350505050565b600080600060608486031215620002c157600080fd5b835160208501519093506001600160401b0380821115620002e157600080fd5b620002ef87838801620001fc565b935060408601519150808211156200030657600080fd5b506200031586828701620001fc565b9150509250925092565b600181811c908216806200033457607f821691505b6020821081036200035557634e487b7160e01b600052602260045260246000fd5b50919050565b601f821115620003a957600081815260208120601f850160051c81016020861015620003845750805b601f850160051c820191505b81811015620003a55782815560010162000390565b5050505b505050565b81516001600160401b03811115620003ca57620003ca620001e6565b620003e281620003db84546200031f565b846200035b565b602080601f8311600181146200041a5760008415620004015750858301515b600019600386901b1c1916600185901b178555620003a5565b600085815260208120601f198616915b828110156200044b578886015182559484019460019091019084016200042a565b50858210156200046a5787850151600019600388901b60f8161c191681555b5050505050600190811b01905550565b808201808211156200049c57634e487b7160e01b600052601160045260246000fd5b92915050565b6107c680620004b26000396000f3fe608060405234801561001057600080fd5b50600436106100a35760003560e01c8063313ce5671161007657806395d89b411161005b57806395d89b4114610146578063a9059cbb1461014e578063dd62ed3e1461016157600080fd5b8063313ce5671461010e57806370a082311461011d57600080fd5b806306fdde03146100a8578063095ea7b3146100c657806318160ddd146100e957806323b872dd146100fb575b600080fd5b6100b061019a565b6040516100bd9190610610565b60405180910390f35b6100d96100d436600461067a565b61022c565b60405190151581526020016100bd565b6002545b6040519081526020016100bd565b6100d96101093660046106a4565b610246565b604051601281526020016100bd565b6100ed61012b3660046106e0565b6001600160a01b031660009081526020819052604090205490565b6100b061026a565b6100d961015c36600461067a565b610279565b6100ed61016f366004610702565b6001600160a01b03918216600090815260016020908152604080832093909416825291909152205490565b6060600380546101a990610735565b80601f01602080910402602001604051908101604052809291908181526020018280546101d590610735565b80156102225780601f106101f757610100808354040283529160200191610222565b820191906000526020600020905b81548152906001019060200180831161020557829003601f168201915b5050505050905090565b60003361023a818585610287565b60019150505b92915050565b600033610254858285610299565b61025f858585610335565b506001949350505050565b6060600480546101a990610735565b60003361023a818585610335565b61029483838360016103c6565b505050565b6001600160a01b03838116600090815260016020908152604080832093861683529290522054600019811461032f5781811015610320576040517ffb8f41b20000000000000000000000000000000000000000000000000000000081526001600160a01b038416600482015260248101829052604481018390526064015b60405180910390fd5b61032f848484840360006103c6565b50505050565b6001600160a01b038316610378576040517f96c6fd1e00000000000000000000000000000000000000000000000000000000815260006004820152602401610317565b6001600160a01b0382166103bb576040517fec442f0500000000000000000000000000000000000000000000000000000000815260006004820152602401610317565b6102948383836104cd565b6001600160a01b038416610409576040517fe602df0500000000000000000000000000000000000000000000000000000000815260006004820152602401610317565b6001600160a01b03831661044c576040517f94280d6200000000000000000000000000000000000000000000000000000000815260006004820152602401610317565b6001600160a01b038085166000908152600160209081526040808320938716835292905220829055801561032f57826001600160a01b0316846001600160a01b03167f8c5be1e5ebec7d5bd14f71427d1e84f3dd0314c0f7b2291e5b200ac8c7c3b925846040516104bf91815260200190565b60405180910390a350505050565b6001600160a01b0383166104f85780600260008282546104ed919061076f565b909155506105839050565b6001600160a01b03831660009081526020819052604090205481811015610564576040517fe450d38c0000000000000000000000000000000000000000000000000000000081526001600160a01b03851660048201526024810182905260448101839052606401610317565b6001600160a01b03841660009081526020819052604090209082900390555b6001600160a01b03821661059f576002805482900390556105be565b6001600160a01b03821660009081526020819052604090208054820190555b816001600160a01b0316836001600160a01b03167fddf252ad1be2c89b69c2b068fc378daa952ba7f163c4a11628f55a4df523b3ef8360405161060391815260200190565b60405180910390a3505050565b600060208083528351808285015260005b8181101561063d57858101830151858201604001528201610621565b506000604082860101526040601f19601f8301168501019250505092915050565b80356001600160a01b038116811461067557600080fd5b919050565b6000806040838503121561068d57600080fd5b6106968361065e565b946020939093013593505050565b6000806000606084860312156106b957600080fd5b6106c28461065e565b92506106d06020850161065e565b9150604084013590509250925092565b6000602082840312156106f257600080fd5b6106fb8261065e565b9392505050565b6000806040838503121561071557600080fd5b61071e8361065e565b915061072c6020840161065e565b90509250929050565b600181811c9082168061074957607f821691505b60208210810361076957634e487b7160e01b600052602260045260246000fd5b50919050565b8082018082111561024057634e487b7160e01b600052601160045260246000fdfea2646970667358221220004e8926e5acf9ded160570c549ae7fbf9f4c6d278aea1183dcfff8d0d6814e764736f6c6343000814003360c060405234801561001057600080fd5b5060405161081b38038061081b83398101604081905261002f91610080565b6001600160a01b039384166080529190921660a052600191909155600255600080546001600160a01b031916331790556100c3565b80516001600160a01b038116811461007b57600080fd5b919050565b6000806000806080858703121561009657600080fd5b61009f85610064565b93506100ad60208601610064565b6040860151606090960151949790965092505050565b60805160a0516106f56101266000396000818161010e01528181610177015281816101e5015281816102b7015261053301526000818160870152818161013501528181610198015281816101c40152818161027c01526104ab01526106f56000f3fe608060405234801561001057600080fd5b506004361061007d5760003560e01c8063cbcb31711161005b578063cbcb3171146100ef578063cfc0e414146100f8578063f1d9f88b14610101578063fc0c546a1461010957600080fd5b8063529eef2c146100825780636d069a67146100c6578063c27d6a02146100e7575b600080fd5b6100a97f000000000000000000000000000000000000000000000000000000000000000081565b6040516001600160a01b0390911681526020015b60405180910390f35b6100d96100d43660046105d9565b610130565b6040519081526020016100bd565b6001546100d9565b6100d960025481565b6100d960015481565b6002546100d9565b6100a97f000000000000000000000000000000000000000000000000000000000000000081565b6000807f00000000000000000000000000000000000000000000000000000000000000006001600160a01b0316856001600160a01b0316149050600080600080846101c2577f00000000000000000000000000000000000000000000000000000000000000007f000000000000000000000000000000000000000000000000000000000000000060025460015461020b565b7f00000000000000000000000000000000000000000000000000000000000000007f00000000000000000000000000000000000000000000000000000000000000006001546002545b9350935093509350878261021f919061062b565b6102298983610644565b610233919061065b565b6000549096506001600160a01b0316331461027a576040517f5f12bb6400000000000000000000000000000000000000000000000000000000815260040160405180910390fd5b7f00000000000000000000000000000000000000000000000000000000000000006001600160a01b0316896001600160a01b031614806102eb57507f00000000000000000000000000000000000000000000000000000000000000006001600160a01b0316896001600160a01b0316145b610321576040517f6e4db0da00000000000000000000000000000000000000000000000000000000815260040160405180910390fd5b600186101561035c576040517f43a413d100000000000000000000000000000000000000000000000000000000815260040160405180910390fd5b610366888361062b565b6040516370a0823160e01b81523060048201526001600160a01b038616906370a0823190602401602060405180830381865afa1580156103aa573d6000803e3d6000fd5b505050506040513d601f19601f820116820180604052508101906103ce919061067d565b14610405576040517f5b8f98dd00000000000000000000000000000000000000000000000000000000815260040160405180910390fd5b6040517fa9059cbb0000000000000000000000000000000000000000000000000000000081526001600160a01b0388811660048301526024820188905284169063a9059cbb906044016020604051808303816000875af115801561046d573d6000803e3d6000fd5b505050506040513d601f19601f820116820180604052508101906104919190610696565b506040516370a0823160e01b81523060048201526105b1907f00000000000000000000000000000000000000000000000000000000000000006001600160a01b0316906370a0823190602401602060405180830381865afa1580156104fa573d6000803e3d6000fd5b505050506040513d601f19601f8201168201806040525081019061051e919061067d565b6040516370a0823160e01b81523060048201527f00000000000000000000000000000000000000000000000000000000000000006001600160a01b0316906370a0823190602401602060405180830381865afa158015610582573d6000803e3d6000fd5b505050506040513d601f19601f820116820180604052508101906105a6919061067d565b600191909155600255565b50505050509392505050565b80356001600160a01b03811681146105d457600080fd5b919050565b6000806000606084860312156105ee57600080fd5b6105f7846105bd565b92506020840135915061060c604085016105bd565b90509250925092565b634e487b7160e01b600052601160045260246000fd5b8082018082111561063e5761063e610615565b92915050565b808202811582820484141761063e5761063e610615565b60008261067857634e487b7160e01b600052601260045260246000fd5b500490565b60006020828403121561068f57600080fd5b5051919050565b6000602082840312156106a857600080fd5b815180151581146106b857600080fd5b939250505056fea26469706673582212205f5096d5ac828ced01b5616c7e3339c2d7a8aa14231a2975e724a6f6e98fb19964736f6c63430008140033",
  "devdoc": {
    "kind": "dev",
    "methods": {},
    "version": 1
  },
  "userdoc": {
    "kind": "user",
    "methods": {},
    "version": 1
  },
  "storageLayout": {
    "storage": [
      {
        "astId": 844,
        "contract": "contracts/AMMController.sol:AMMController",
        "label": "owner",
        "offset": 0,
        "slot": "0",
        "type": "t_address"
      },
      {
        "astId": 846,
        "contract": "contracts/AMMController.sol:AMMController",
        "label": "stableCurrency",
        "offset": 0,
        "slot": "1",
        "type": "t_address"
      },
      {
        "astId": 848,
        "contract": "contracts/AMMController.sol:AMMController",
        "label": "initialTokensForUsers",
        "offset": 0,
        "slot": "2",
        "type": "t_uint256"
      },
      {
        "astId": 850,
        "contract": "contracts/AMMController.sol:AMMController",
        "label": "limitNumberOfUsers",
        "offset": 0,
        "slot": "3",
        "type": "t_uint256"
      },
      {
        "astId": 852,
        "contract": "contracts/AMMController.sol:AMMController",
        "label": "usersCount",
        "offset": 0,
        "slot": "4",
        "type": "t_uint256"
      },
      {
        "astId": 854,
        "contract": "contracts/AMMController.sol:AMMController",
        "label": "tokensCount",
        "offset": 0,
        "slot": "5",
        "type": "t_uint256"
      },
      {
        "astId": 856,
        "contract": "contracts/AMMController.sol:AMMController",
        "label": "initialConversionRateFromTokenToStable",
        "offset": 0,
        "slot": "6",
        "type": "t_uint256"
      },
      {
        "astId": 861,
        "contract": "contracts/AMMController.sol:AMMController",
        "label": "users",
        "offset": 0,
        "slot": "7",
        "type": "t_mapping(t_address,t_struct(User)818_storage)"
      },
      {
        "astId": 865,
        "contract": "contracts/AMMController.sol:AMMController",
        "label": "usedUsernames",
        "offset": 0,
        "slot": "8",
        "type": "t_mapping(t_string_memory_ptr,t_bool)"
      },
      {
        "astId": 871,
        "contract": "contracts/AMMController.sol:AMMController",
        "label": "userTokenBalance",
        "offset": 0,
        "slot": "9",
        "type": "t_mapping(t_address,t_mapping(t_address,t_uint256))"
      },
      {
        "astId": 875,
        "contract": "contracts/AMMController.sol:AMMController",
        "label": "userStableCurrencyBalance",
        "offset": 0,
        "slot": "10",
        "type": "t_mapping(t_address,t_uint256)"
      },
      {
        "astId": 879,
        "contract": "contracts/AMMController.sol:AMMController",
        "label": "tokens",
        "offset": 0,
        "slot": "11",
        "type": "t_mapping(t_uint256,t_address)"
      },
      {
        "astId": 883,
        "contract": "contracts/AMMController.sol:AMMController",
        "label": "tokenToPool",
        "offset": 0,
        "slot": "12",
        "type": "t_mapping(t_address,t_address)"
      }
    ],
    "types": {
      "t_address": {
        "encoding": "inplace",
        "label": "address",
        "numberOfBytes": "20"
      },
      "t_bool": {
        "encoding": "inplace",
        "label": "bool",
        "numberOfBytes": "1"
      },
      "t_mapping(t_address,t_address)": {
        "encoding": "mapping",
        "key": "t_address",
        "label": "mapping(address => address)",
        "numberOfBytes": "32",
        "value": "t_address"
      },
      "t_mapping(t_address,t_mapping(t_address,t_uint256))": {
        "encoding": "mapping",
        "key": "t_address",
        "label": "mapping(address => mapping(address => uint256))",
        "numberOfBytes": "32",
        "value": "t_mapping(t_address,t_uint256)"
      },
      "t_mapping(t_address,t_struct(User)818_storage)": {
        "encoding": "mapping",
        "key": "t_address",
        "label": "mapping(address => struct AMMController.User)",
        "numberOfBytes": "32",
        "value": "t_struct(User)818_storage"
      },
      "t_mapping(t_address,t_uint256)": {
        "encoding": "mapping",
        "key": "t_address",
        "label": "mapping(address => uint256)",
        "numberOfBytes": "32",
        "value": "t_uint256"
      },
      "t_mapping(t_string_memory_ptr,t_bool)": {
        "encoding": "mapping",
        "key": "t_string_memory_ptr",
        "label": "mapping(string => bool)",
        "numberOfBytes": "32",
        "value": "t_bool"
      },
      "t_mapping(t_uint256,t_address)": {
        "encoding": "mapping",
        "key": "t_uint256",
        "label": "mapping(uint256 => address)",
        "numberOfBytes": "32",
        "value": "t_address"
      },
      "t_string_memory_ptr": {
        "encoding": "bytes",
        "label": "string",
        "numberOfBytes": "32"
      },
      "t_string_storage": {
        "encoding": "bytes",
        "label": "string",
        "numberOfBytes": "32"
      },
      "t_struct(User)818_storage": {
        "encoding": "inplace",
        "label": "struct AMMController.User",
        "members": [
          {
            "astId": 813,
            "contract": "contracts/AMMController.sol:AMMController",
            "label": "id",
            "offset": 0,
            "slot": "0",
            "type": "t_uint256"
          },
          {
            "astId": 815,
            "contract": "contracts/AMMController.sol:AMMController",
            "label": "username",
            "offset": 0,
            "slot": "1",
            "type": "t_string_storage"
          },
          {
            "astId": 817,
            "contract": "contracts/AMMController.sol:AMMController",
            "label": "isRegistered",
            "offset": 0,
            "slot": "2",
            "type": "t_bool"
          }
        ],
        "numberOfBytes": "96"
      },
      "t_uint256": {
        "encoding": "inplace",
        "label": "uint256",
        "numberOfBytes": "32"
      }
    }
  }
}