{
  "address": "0x5FbDB2315678afecb367f032d93F642f64180aa3",
  "abi": [
    {
      "inputs": [
        {
          "components": [
            {
              "internalType": "string",
              "name": "name",
              "type": "string"
            },
            {
              "internalType": "string",
              "name": "tag",
              "type": "string"
            }
          ],
          "internalType": "struct AMMController.TokenCreationProps[]",
          "name": "_tokens",
          "type": "tuple[]"
        },
        {
          "components": [
            {
              "internalType": "string",
              "name": "name",
              "type": "string"
            },
            {
              "internalType": "string",
              "name": "tag",
              "type": "string"
            }
          ],
          "internalType": "struct AMMController.TokenCreationProps",
          "name": "_stableCurrency",
          "type": "tuple"
        },
        {
          "internalType": "uint256",
          "name": "_initialSupplyForTokens",
          "type": "uint256"
        },
        {
          "internalType": "uint256",
          "name": "_initialConversionRateFromTokenToStable",
          "type": "uint256"
        },
        {
          "internalType": "uint256",
          "name": "_limitNumberOfUsers",
          "type": "uint256"
        },
        {
          "internalType": "uint256",
          "name": "_initialTokensForUsers",
          "type": "uint256"
        }
      ],
      "stateMutability": "nonpayable",
      "type": "constructor"
    },
    {
      "inputs": [],
      "name": "AMMController_AllowanceDifferOrAmountZero",
      "type": "error"
    },
    {
      "inputs": [],
      "name": "AMMController_InvalidTokenPair",
      "type": "error"
    },
    {
      "inputs": [],
      "name": "AMMController_LimitOfUsersExceded",
      "type": "error"
    },
    {
      "inputs": [],
      "name": "AMMController_NotUser",
      "type": "error"
    },
    {
      "inputs": [],
      "name": "AMMController_StableCurrencyIsRequired",
      "type": "error"
    },
    {
      "inputs": [],
      "name": "AMMController_UserAlreadyRegistered",
      "type": "error"
    },
    {
      "inputs": [],
      "name": "AMMController_UsernameInUse",
      "type": "error"
    },
    {
      "inputs": [],
      "name": "AMMController_UsernameLengthOf35Exceded",
      "type": "error"
    },
    {
      "anonymous": false,
      "inputs": [
        {
          "indexed": false,
          "internalType": "address",
          "name": "negotiator",
          "type": "address"
        },
        {
          "indexed": false,
          "internalType": "address",
          "name": "fromToken",
          "type": "address"
        },
        {
          "indexed": false,
          "internalType": "address",
          "name": "toToken",
          "type": "address"
        },
        {
          "indexed": false,
          "internalType": "uint256",
          "name": "amountIn",
          "type": "uint256"
        },
        {
          "indexed": false,
          "internalType": "uint256",
          "name": "amountOutReceived",
          "type": "uint256"
        }
      ],
      "name": "TradeExecuted",
      "type": "event"
    },
    {
      "inputs": [
        {
          "internalType": "address",
          "name": "possibleUser",
          "type": "address"
        }
      ],
      "name": "checkIfUserExists",
      "outputs": [
        {
          "internalType": "bool",
          "name": "",
          "type": "bool"
        }
      ],
      "stateMutability": "view",
      "type": "function"
    },
    {
      "inputs": [
        {
          "internalType": "string",
          "name": "_username",
          "type": "string"
        }
      ],
      "name": "createUser",
      "outputs": [],
      "stateMutability": "nonpayable",
      "type": "function"
    },
    {
      "inputs": [],
      "name": "getAllTokens",
      "outputs": [
        {
          "components": [
            {
              "internalType": "address",
              "name": "tokenAddress",
              "type": "address"
            },
            {
              "internalType": "string",
              "name": "name",
              "type": "string"
            },
            {
              "internalType": "string",
              "name": "tag",
              "type": "string"
            }
          ],
          "internalType": "struct AMMController.TokenDataReturned[]",
          "name": "",
          "type": "tuple[]"
        }
      ],
      "stateMutability": "view",
      "type": "function"
    },
    {
      "inputs": [
        {
          "internalType": "address",
          "name": "_token",
          "type": "address"
        }
      ],
      "name": "getPoolForToken",
      "outputs": [
        {
          "internalType": "address",
          "name": "",
          "type": "address"
        }
      ],
      "stateMutability": "view",
      "type": "function"
    },
    {
      "inputs": [
        {
          "internalType": "address",
          "name": "_tokenOfPool",
          "type": "address"
        }
      ],
      "name": "getPoolStableCurrencyReserve",
      "outputs": [
        {
          "internalType": "uint256",
          "name": "",
          "type": "uint256"
        }
      ],
      "stateMutability": "view",
      "type": "function"
    },
    {
      "inputs": [
        {
          "internalType": "address",
          "name": "_tokenOfPool",
          "type": "address"
        }
      ],
      "name": "getPoolTokenReserve",
      "outputs": [
        {
          "internalType": "uint256",
          "name": "",
          "type": "uint256"
        }
      ],
      "stateMutability": "view",
      "type": "function"
    },
    {
      "inputs": [],
      "name": "getStableCurrency",
      "outputs": [
        {
          "internalType": "address",
          "name": "",
          "type": "address"
        }
      ],
      "stateMutability": "view",
      "type": "function"
    },
    {
      "inputs": [],
      "name": "getStableCurrencyDetails",
      "outputs": [
        {
          "components": [
            {
              "internalType": "address",
              "name": "tokenAddress",
              "type": "address"
            },
            {
              "internalType": "string",
              "name": "name",
              "type": "string"
            },
            {
              "internalType": "string",
              "name": "tag",
              "type": "string"
            }
          ],
          "internalType": "struct AMMController.TokenDataReturned",
          "name": "",
          "type": "tuple"
        }
      ],
      "stateMutability": "view",
      "type": "function"
    },
    {
      "inputs": [
        {
          "internalType": "address",
          "name": "_userAddress",
          "type": "address"
        }
      ],
      "name": "getUserBalanceInStableCurrency",
      "outputs": [
        {
          "internalType": "uint256",
          "name": "",
          "type": "uint256"
        }
      ],
      "stateMutability": "view",
      "type": "function"
    },
    {
      "inputs": [
        {
          "internalType": "address",
          "name": "_userAddress",
          "type": "address"
        },
        {
          "internalType": "address",
          "name": "_token",
          "type": "address"
        }
      ],
      "name": "getUserBalanceInToken",
      "outputs": [
        {
          "internalType": "uint256",
          "name": "",
          "type": "uint256"
        }
      ],
      "stateMutability": "view",
      "type": "function"
    },
    {
      "inputs": [
        {
          "internalType": "address",
          "name": "_userAddress",
          "type": "address"
        }
      ],
      "name": "getUserByAddress",
      "outputs": [
        {
          "components": [
            {
              "internalType": "uint256",
              "name": "id",
              "type": "uint256"
            },
            {
              "internalType": "string",
              "name": "username",
              "type": "string"
            },
            {
              "internalType": "bool",
              "name": "isRegistered",
              "type": "bool"
            }
          ],
          "internalType": "struct AMMController.User",
          "name": "",
          "type": "tuple"
        }
      ],
      "stateMutability": "view",
      "type": "function"
    },
    {
      "inputs": [
        {
          "internalType": "address",
          "name": "_fromToken",
          "type": "address"
        },
        {
          "internalType": "address",
          "name": "_toToken",
          "type": "address"
        },
        {
          "internalType": "uint256",
          "name": "_amountIn",
          "type": "uint256"
        }
      ],
      "name": "tradeTokens",
      "outputs": [],
      "stateMutability": "nonpayable",
      "type": "function"
    }
  ],
  "transactionHash": "0xea80f53f0a9ac2493e210380aa2af39e48c4232d7c5cc0b5a9ee4d23643cfc3c",
  "args": [
    [
      {
        "name": "Facu",
        "tag": "FAC"
      },
      {
        "name": "Polo",
        "tag": "POL"
      },
      {
        "name": "Colo",
        "tag": "COL"
      },
      {
        "name": "Jotto",
        "tag": "JOT"
      },
      {
        "name": "Maxi",
        "tag": "MAX"
      },
      {
        "name": "Wais",
        "tag": "WSM"
      },
      {
        "name": "Roni",
        "tag": "RON"
      },
      {
        "name": "Chocho",
        "tag": "CH8"
      },
      {
        "name": "Ian",
        "tag": "IAN"
      },
      {
        "name": "Mastro",
        "tag": "MST"
      },
      {
        "name": "Palmo",
        "tag": "PLM"
      }
    ],
    {
      "name": "Mutante Coin",
      "tag": "MUT"
    },
    2000,
    1000,
    11,
    100
  ],
  "numDeployments": 1,
  "solcInputHash": "1df40345df1713751a0f4fc159c4d967",
  "bytecode": "0x608080604052346200043b5762002961803803809162000020828562000471565b8339810160c0828203126200043b5781516001600160401b0381116200043b5782019080601f830112156200043b578151916001600160401b038311620003ed578260051b906040519362000079602084018662000471565b8452602080850192820101918383116200043b5760208201905b83821062000440575050505060208301516001600160401b0381116200043b576200010d91620000c591850162000515565b620001246200011b620001136040870151966060810151958160a0608089940151910151903360018060a01b031960005416176000558360065580600355816002556200057f565b6200057f565b93866200057f565b8451906200057f565b8201809211620004255780516020909101516040519290610b3a84018085116001600160401b0390911117620003ed5783926200016f92610b3a62001e278639610b3a8501620005f5565b03906000f08015620003bf57600180546001600160a01b0319166001600160a01b039290921691909117905560005b81518110156200041557620001b48183620005a3565b51516020620001c48385620005a3565b5101516001546001600160a01b0316156200040357604051916001600160401b03610b3a840190811190841117620003ed5782916200021291610b3a62001e27853987610b3a8501620005f5565b03906000f0908115620003bf576200022d600654856200057f565b6001546040519193906001600160a01b03166001600160401b036106fc840190811190841117620003ed576106fc6200172b84396106fc83019081526001600160a01b03919091166020820181905260408201859052606082018790529190819003608001906000f08015620003bf5760015460405163a9059cbb60e01b8082526001600160a01b039384166004808401829052602484018b9052909594919391909116906020836044816000895af18015620003bf576020948794600092620003cb575b50604080519182526001600160a01b0390951692810192835260208301999099528893849283910103925af1938415620003bf57620003839462000389575b50600554600052600b60205260406000208160018060a01b0319825416179055600052600c60205260406000209060018060a01b03198254161790556200037a60055462000593565b60055562000593565b6200019e565b620003af9060203d602011620003b7575b620003a6818362000471565b81019062000624565b503862000331565b503d6200039a565b6040513d6000823e3d90fd5b620003e590873d8911620003b757620003a6818362000471565b5038620002f2565b634e487b7160e01b600052604160045260246000fd5b604051632830d73360e21b8152600490fd5b6040516110ec90816200063f8239f35b634e487b7160e01b600052601160045260246000fd5b600080fd5b81516001600160401b0381116200043b57602091620004658784809488010162000515565b81520191019062000093565b601f909101601f19168101906001600160401b03821190821017620003ed57604052565b60005b838110620004a95750506000910152565b818101518382015260200162000498565b81601f820112156200043b5780516001600160401b038111620003ed5760405192620004f1601f8301601f19166020018562000471565b818452602082840101116200043b5762000512916020808501910162000495565b90565b9190916040818403126200043b5760408051916001600160401b0391830182811184821017620003ed57604052829481518381116200043b57816200055c918401620004ba565b845260208201519283116200043b576020926200057a9201620004ba565b910152565b818102929181159184041417156200042557565b6000198114620004255760010190565b8051821015620005b85760209160051b010190565b634e487b7160e01b600052603260045260246000fd5b90602091620005e98151809281855285808601910162000495565b601f01601f1916010190565b9162000615906200051294928452606060208501526060840190620005ce565b916040818403910152620005ce565b908160209103126200043b575180151581036200043b579056fe60806040908082526004918236101561001757600080fd5b600091823560e01c90816313f38d2d14610e1657508063255bfbcc14610ddd5780632a5c792a14610c365780632b07437f14610c0057806333a9efa214610822578063507ffba51461048357806369c212f6146103485780639371de2b1461030a578063b39551bb14610298578063bd3f8f33146101ab578063f1c3e345146101635763f7055f23146100a957600080fd5b3461015f576020928360031936011261015b57836001600160a01b03806100ce610e3b565b168552600c825283852054168351928380927fc27d6a020000000000000000000000000000000000000000000000000000000082525afa92831561015057809361011b575b505051908152f35b909192508382813d8311610149575b6101348183610f26565b81010312610146575051903880610113565b80fd5b503d61012a565b8251903d90823e3d90fd5b8280fd5b5080fd5b503461015f578060031936011261015f5780602092610180610e3b565b610188610e56565b6001600160a01b0391821683526009865283832091168252845220549051908152f35b5082903461015b578260031936011261015b576101c661100d565b506101cf61100d565b91836001600160a01b036001541680855283516306fdde0360e01b815282818581855afa90811561028e578391610274575b5060208601528351928380926395d89b4160e01b82525afa90811561026a57846102439592610247575b50508183015251918291602083526020830190610eb4565b0390f35b61026392503d8091833e61025b8183610f26565b810190611057565b848061022b565b82513d86823e3d90fd5b61028891503d8085833e61025b8183610f26565b87610201565b85513d85823e3d90fd5b503461015f576020928360031936011261015b57836001600160a01b03806102be610e3b565b168552600c825283852054168351928380927ff1d9f88b0000000000000000000000000000000000000000000000000000000082525afa92831561015057809361011b57505051908152f35b503461015f57602036600319011261015f5760ff6002826020946001600160a01b03610334610e3b565b168152600786522001541690519015158152f35b503461015f5760209182600319360112610146576001600160a01b0361036c610e3b565b8284805161037981610ef4565b8281526060888201520152168152600783528181209180519261039b84610ef4565b80548452600180820193868451958693838254926103b884610f64565b808852938381169081156104605750600114610426575b5050505050600261041994936103eb60609460ff940388610f26565b8888019687520154169382860194151585528251968796818852519087015251918501526080840190610e8f565b9051151560608301520390f35b9080949550528383205b82841061044a5750505082010186836103eb8460ff6103cf565b8054898501860152889550928401928101610430565b60ff19168689015250505050151560051b830101905086836103eb8460ff6103cf565b5082903461015b5760208060031936011261081e5767ffffffffffffffff833581811161081a573660238201121561081a578085013590866104c483610f48565b916104d187519384610f26565b83835285830193366024828401011161015b57806024889301863783010152338752600784528487209160238251116107f257600283019160ff8354166107ca5760ff875187818451610525818389610e6c565b8101600881520301902054166107a25760035488548091111561077a5784556001809401815195861161076757908161056088949354610f64565b601f8111610713575b5083968b601f82116001146106a5579181889694926001600160a01b039a6105c197959161069a575b50600019600383901b1c191690871b1790555b60ff199585878254161790558951938492839251928391610e6c565b81016008815203019020918254161790556105dc8554610f9e565b85555416600254936006549485810295818704149015171561068757859160448492865194859384927fa9059cbb00000000000000000000000000000000000000000000000000000000845233908401528960248401525af1801561067d5790600a9291610650575b503385525282205580f35b61066f90823d8411610676575b6106678183610f26565b810190610fc3565b5085610645565b503d61065d565b83513d87823e3d90fd5b856011602492634e487b7160e01b835252fd5b90508301518f610592565b50818c52848c2097601f1982168d5b8181106106fd5750826001600160a01b039a6105c19795938b9997958a94106106e4575b5050811b0190556105a5565b85015160001960f88460031b161c191690558f806106d8565b828601518b55998901998b9792830192016106b4565b9080929394508b52878b20601f880160051c81019189891061075d575b899594939291601f89920160051c01915b82811061074f575050610569565b8d81558a9650889101610741565b9091508190610730565b60248a60418b634e487b7160e01b835252fd5b8888517f0a3e568a000000000000000000000000000000000000000000000000000000008152fd5b8787517f05f2705a000000000000000000000000000000000000000000000000000000008152fd5b8787517f8363cd4b000000000000000000000000000000000000000000000000000000008152fd5b8686517f7836c09f000000000000000000000000000000000000000000000000000000008152fd5b8580fd5b8380fd5b50823461015b57606036600319011261015b5761083d610e3b565b90610846610e56565b92604435906001600160a01b03809416933387526020946007865260ff6002848a2001541615610bd85782517fdd62ed3e00000000000000000000000000000000000000000000000000000000815233868201523060248201528681604481855afa908115610bce579085918a91610b99575b5014801590610b8f575b610b675781600154168082149081610b4f575b8115610b28575b5015610b0057808852600c865282882054821680610afa57508187168852818389205416945b828451967f23b872dd0000000000000000000000000000000000000000000000000000000088523383890152169586602482015285604482015287816064818d875af18015610af05788928492606492610ad3575b508b8751998a9485937f6d069a670000000000000000000000000000000000000000000000000000000085528401528960248401523360448401525af1948515610ac9578895610a6c575b50907f3fcfb2f2e0146d5be7268f9e4cd3c4c0ce3428f68805db227b7fc378db7519ac9660a0969594939282600154168114600014610a3157338a52600a8752838a206109f1868254610fdb565b9055338a5260098752838a208383168b528752838a20610a12878254610fe8565b90555b835196338852870152169084015260608301526080820152a180f35b338a5260098752838a20818b528752838a20610a4e868254610fdb565b9055338a52600a8752838a20610a65878254610fe8565b9055610a15565b9594509291908486813d8111610ac2575b610a878183610f26565b81010312610abe579451939491929091907f3fcfb2f2e0146d5be7268f9e4cd3c4c0ce3428f68805db227b7fc378db7519ac6109a3565b8780fd5b503d610a7d565b83513d8a823e3d90fd5b610ae990853d8711610676576106678183610f26565b508c610958565b85513d8c823e3d90fd5b94610903565b8483517f3ec18a2f000000000000000000000000000000000000000000000000000000008152fd5b90508288161480610b3a575b896108dd565b50808852600c86528183892054161515610b34565b8884168a52600c8852848a20548416151591506108d6565b8483517fbd93c6ee000000000000000000000000000000000000000000000000000000008152fd5b50600184106108c3565b809250888092503d8311610bc7575b610bb28183610f26565b81010312610bc3578490518a6108b9565b8880fd5b503d610ba8565b84513d8b823e3d90fd5b8483517f09795e40000000000000000000000000000000000000000000000000000000008152fd5b503461015f57602036600319011261015f57806020926001600160a01b03610c26610e3b565b168152600a845220549051908152f35b50913461015f578160031936011261015f57600554610c5481610ff5565b91610c6185519384610f26565b818352601f19610c7083610ff5565b01845b818110610dc6575050835b828110610ce357505050825191602080840190808552835180925280868601968360051b870101940192955b828710610cb75785850386f35b909192938280610cd3600193603f198a82030186528851610eb4565b9601920196019592919092610caa565b8085526020600b81526001600160a01b0387872054169081610d05848861102d565b51528751906306fdde0360e01b825287828681865afa918215610dbc579185939189938492610da0575b50610d3a868a61102d565b5101528851928380926395d89b4160e01b82525afa908115610d965790610d7792918791610d7c575b5087610d6f838861102d565b510152610f9e565b610c7e565b610d9091503d8089833e61025b8183610f26565b38610d63565b87513d88823e3d90fd5b610db59192503d8086833e61025b8183610f26565b9038610d2f565b89513d8a823e3d90fd5b602090610dd161100d565b82828801015201610c73565b503461015f57602036600319011261015f57602091816001600160a01b039182610e05610e3b565b168152600c85522054169051908152f35b83903461015f578160031936011261015f576020906001600160a01b03600154168152f35b600435906001600160a01b0382168203610e5157565b600080fd5b602435906001600160a01b0382168203610e5157565b60005b838110610e7f5750506000910152565b8181015183820152602001610e6f565b90602091610ea881518092818552858086019101610e6c565b601f01601f1916010190565b610ef1916001600160a01b0382511681526040610ee06020840151606060208501526060840190610e8f565b920151906040818403910152610e8f565b90565b6060810190811067ffffffffffffffff821117610f1057604052565b634e487b7160e01b600052604160045260246000fd5b90601f8019910116810190811067ffffffffffffffff821117610f1057604052565b67ffffffffffffffff8111610f1057601f01601f191660200190565b90600182811c92168015610f94575b6020831014610f7e57565b634e487b7160e01b600052602260045260246000fd5b91607f1691610f73565b6000198114610fad5760010190565b634e487b7160e01b600052601160045260246000fd5b90816020910312610e5157518015158103610e515790565b91908203918211610fad57565b91908201809211610fad57565b67ffffffffffffffff8111610f105760051b60200190565b6040519061101a82610ef4565b6060604083600081528260208201520152565b80518210156110415760209160051b010190565b634e487b7160e01b600052603260045260246000fd5b602081830312610e515780519067ffffffffffffffff8211610e51570181601f82011215610e5157805161108a81610f48565b926110986040519485610f26565b81845260208284010111610e5157610ef19160208085019101610e6c56fea2646970667358221220f8cb59ade861ac89fce51e08c1ab98410b012ba3f0799530838ed5af9fa065c864736f6c6343000814003360c0346100cb57601f6106fc38819003918201601f19168301916001600160401b038311848410176100d0578084926080946040528339810103126100cb57610047816100e6565b90610054602082016100e6565b91606060408301519201519260018060a01b038092166080521660a0526001556002553360018060a01b0319600054161760005560405161060190816100fb8239608051818181610130015261054c015260a051818181608e01528181610172015281816102ce0152818161047a01526105000152f35b600080fd5b634e487b7160e01b600052604160045260246000fd5b51906001600160a01b03821682036100cb5756fe60808060405260048036101561001457600080fd5b60003560e01c918263529eef2c1461052e575081636d069a67146100f357508063c27d6a02146100d5578063cbcb3171146100b7578063cfc0e414146100d5578063f1d9f88b146100b75763fc0c546a1461006e57600080fd5b346100b25760003660031901126100b25760206040516001600160a01b037f0000000000000000000000000000000000000000000000000000000000000000168152f35b600080fd5b346100b25760003660031901126100b2576020600254604051908152f35b346100b25760003660031901126100b2576020600154604051908152f35b346100b25760603660031901126100b25780356001600160a01b0381168091036100b257602435906044356001600160a01b03811681036100b2577f0000000000000000000000000000000000000000000000000000000000000000926001600160a01b0384169182841494856000146104f4576001549260025491907f00000000000000000000000000000000000000000000000000000000000000009492975b81890298808a048314901517156104df576101b08285610570565b9788156104ca576001600160a01b036000541633036104a157811561046e575b50156104455760018789041061041c5760206001600160a01b039260248b60405195869384926370a0823160e01b84523090840152165afa918215610347576000926103e6575b506102229192610570565b036103bd576001600160a01b03604460209260008360405196879586947fa9059cbb000000000000000000000000000000000000000000000000000000008652168c850152898b046024850152165af1801561034757610385575b506020602491604051928380926370a0823160e01b825230898301525afa90811561034757600091610353575b50604051936370a0823160e01b855230908501526020846024816001600160a01b037f0000000000000000000000000000000000000000000000000000000000000000165afa90811561034757600091610312575b6020945060015560025560405191048152f35b90506020843d60201161033f575b8161032d60209383610593565b810103126100b25760209351906102ff565b3d9150610320565b6040513d6000823e3d90fd5b90506020813d60201161037d575b8161036e60209383610593565b810103126100b25751846102aa565b3d9150610361565b6020813d6020116103b5575b8161039e60209383610593565b810103126100b25751801515036100b2578461027d565b3d9150610391565b856040517f5b8f98dd000000000000000000000000000000000000000000000000000000008152fd5b91506020823d602011610414575b8161040160209383610593565b810103126100b257610222915191610217565b3d91506103f4565b886040517f43a413d1000000000000000000000000000000000000000000000000000000008152fd5b886040517f6e4db0da000000000000000000000000000000000000000000000000000000008152fd5b90506001600160a01b037f000000000000000000000000000000000000000000000000000000000000000016148a6101d0565b8a6040517f5f12bb64000000000000000000000000000000000000000000000000000000008152fd5b60128b634e487b7160e01b6000525260246000fd5b60118a634e487b7160e01b6000525260246000fd5b506002546001549584937f00000000000000000000000000000000000000000000000000000000000000006001600160a01b031691610195565b346100b25760003660031901126100b2576020906001600160a01b037f0000000000000000000000000000000000000000000000000000000000000000168152f35b9190820180921161057d57565b634e487b7160e01b600052601160045260246000fd5b90601f8019910116810190811067ffffffffffffffff8211176105b557604052565b634e487b7160e01b600052604160045260246000fdfea2646970667358221220ae337c3c55bb2ac8542c9f5ca753e6ac439a642d05dfa87c7d4b22055112247464736f6c63430008140033604060808152346200039f5762000b3a803803806200001e81620003a4565b92833981016060828203126200039f57815191602091828201519160018060401b03928381116200039f578262000057918301620003ca565b91868201518481116200039f57620000709201620003ca565b9181518181116200029f576003908154906001948583811c9316801562000394575b888410146200037e578190601f9384811162000328575b508890848311600114620002c157600092620002b5575b505060001982851b1c191690851b1782555b84519283116200029f5760049485548581811c9116801562000294575b888210146200027f5782811162000234575b5086918411600114620001c957938394918492600095620001bd575b50501b92600019911b1c19161781555b3315620001a657600254908382018092116200019157506000917fddf252ad1be2c89b69c2b068fc378daa952ba7f163c4a11628f55a4df523b3ef9160025533835282815284832084815401905584519384523393a3516106fd90816200043d8239f35b601190634e487b7160e01b6000525260246000fd5b602490600085519163ec442f0560e01b8352820152fd5b0151935038806200011d565b9190601f198416928660005284886000209460005b8a898383106200021c575050501062000201575b50505050811b0181556200012d565b01519060f884600019921b161c1916905538808080620001f2565b868601518955909701969485019488935001620001de565b86600052876000208380870160051c8201928a881062000275575b0160051c019086905b8281106200026857505062000101565b6000815501869062000258565b925081926200024f565b602287634e487b7160e01b6000525260246000fd5b90607f1690620000ef565b634e487b7160e01b600052604160045260246000fd5b015190503880620000c0565b90879350601f19831691866000528a6000209260005b8c828210620003115750508411620002f8575b505050811b018255620000d2565b015160001983871b60f8161c19169055388080620002ea565b8385015186558b97909501949384019301620002d7565b90915084600052886000208480850160051c8201928b861062000374575b918991869594930160051c01915b82811062000364575050620000a9565b6000815585945089910162000354565b9250819262000346565b634e487b7160e01b600052602260045260246000fd5b92607f169262000092565b600080fd5b6040519190601f01601f191682016001600160401b038111838210176200029f57604052565b919080601f840112156200039f5782516001600160401b0381116200029f5760209062000400601f8201601f19168301620003a4565b928184528282870101116200039f5760005b8181106200042857508260009394955001015290565b85810183015184820184015282016200041256fe608060408181526004918236101561001657600080fd5b600092833560e01c91826306fdde031461044e57508163095ea7b3146103a257816318160ddd1461038357816323b872dd14610274578163313ce5671461025857816370a082311461022257816395d89b411461010357508063a9059cbb146100d35763dd62ed3e1461008857600080fd5b346100cf57806003193601126100cf57806020926100a461056f565b6100ac61058a565b6001600160a01b0391821683526001865283832091168252845220549051908152f35b5080fd5b50346100cf57806003193601126100cf576020906100fc6100f261056f565b60243590336105a0565b5160018152f35b8383346100cf57816003193601126100cf57805190828454600181811c90808316928315610218575b6020938484108114610205578388529081156101e95750600114610194575b505050829003601f01601f191682019267ffffffffffffffff841183851017610181575082918261017d925282610526565b0390f35b80604186634e487b7160e01b6024945252fd5b8787529192508591837f8a35acfbc15ff81a39ae7d344fd709f28e8600b4aa8c65c6b64bfe7fe36bd19b5b8385106101d5575050505083010185808061014b565b8054888601830152930192849082016101bf565b60ff1916878501525050151560051b840101905085808061014b565b60248960228c634e487b7160e01b835252fd5b91607f169161012c565b5050346100cf5760203660031901126100cf57806020926001600160a01b0361024961056f565b16815280845220549051908152f35b5050346100cf57816003193601126100cf576020905160128152f35b905082346103805760603660031901126103805761029061056f565b61029861058a565b91604435936001600160a01b0383168083526001602052868320338452602052868320549160001983036102d5575b6020886100fc8989896105a0565b86831061033b57811561032557331561030f575082526001602090815286832033845281529186902090859003905582906100fc876102c7565b60249084895191634a1406b160e11b8352820152fd5b6024908489519163e602df0560e01b8352820152fd5b87517ffb8f41b2000000000000000000000000000000000000000000000000000000008152339181019182526020820193909352604081018790528291506060010390fd5b80fd5b5050346100cf57816003193601126100cf576020906002549051908152f35b90503461044a578160031936011261044a576103bc61056f565b602435903315610434576001600160a01b031691821561041e57508083602095338152600187528181208582528752205582519081527f8c5be1e5ebec7d5bd14f71427d1e84f3dd0314c0f7b2291e5b200ac8c7c3b925843392a35160018152f35b60249085855191634a1406b160e11b8352820152fd5b6024838686519163e602df0560e01b8352820152fd5b8280fd5b8490843461044a578260031936011261044a5782600354600181811c9080831692831561051c575b6020938484108114610205578388529081156101e957506001146104c657505050829003601f01601f191682019267ffffffffffffffff841183851017610181575082918261017d925282610526565b600387529192508591837fc2575a0e9e593c00f959f8c92f12db2869c3395a3b0502d05e2516446f71f85b5b838510610508575050505083010185808061014b565b8054888601830152930192849082016104f2565b91607f1691610476565b6020808252825181830181905290939260005b82811061055b57505060409293506000838284010152601f8019910116010190565b818101860151848201604001528501610539565b600435906001600160a01b038216820361058557565b600080fd5b602435906001600160a01b038216820361058557565b916001600160a01b038084169283156106965716928315610665576000908382528160205260408220549083821061061a575091604082827fddf252ad1be2c89b69c2b068fc378daa952ba7f163c4a11628f55a4df523b3ef958760209652828652038282205586815220818154019055604051908152a3565b6040517fe450d38c0000000000000000000000000000000000000000000000000000000081526001600160a01b03919091166004820152602481019190915260448101839052606490fd5b60246040517fec442f0500000000000000000000000000000000000000000000000000000000815260006004820152fd5b60246040517f96c6fd1e00000000000000000000000000000000000000000000000000000000815260006004820152fdfea26469706673582212204a5e58b4943d993e680e48461f218f6026504f79602fdb11f9861231f64d1f7b64736f6c63430008140033",
  "devdoc": {
    "kind": "dev",
    "methods": {},
    "version": 1
  },
  "userdoc": {
    "kind": "user",
    "methods": {},
    "version": 1
  },
  "storageLayout": {
    "storage": [
      {
        "astId": 846,
        "contract": "contracts/AMMController.sol:AMMController",
        "label": "owner",
        "offset": 0,
        "slot": "0",
        "type": "t_address"
      },
      {
        "astId": 848,
        "contract": "contracts/AMMController.sol:AMMController",
        "label": "stableCurrency",
        "offset": 0,
        "slot": "1",
        "type": "t_address"
      },
      {
        "astId": 850,
        "contract": "contracts/AMMController.sol:AMMController",
        "label": "initialTokensForUsers",
        "offset": 0,
        "slot": "2",
        "type": "t_uint256"
      },
      {
        "astId": 852,
        "contract": "contracts/AMMController.sol:AMMController",
        "label": "limitNumberOfUsers",
        "offset": 0,
        "slot": "3",
        "type": "t_uint256"
      },
      {
        "astId": 854,
        "contract": "contracts/AMMController.sol:AMMController",
        "label": "usersCount",
        "offset": 0,
        "slot": "4",
        "type": "t_uint256"
      },
      {
        "astId": 856,
        "contract": "contracts/AMMController.sol:AMMController",
        "label": "tokensCount",
        "offset": 0,
        "slot": "5",
        "type": "t_uint256"
      },
      {
        "astId": 858,
        "contract": "contracts/AMMController.sol:AMMController",
        "label": "initialConversionRateFromTokenToStable",
        "offset": 0,
        "slot": "6",
        "type": "t_uint256"
      },
      {
        "astId": 863,
        "contract": "contracts/AMMController.sol:AMMController",
        "label": "users",
        "offset": 0,
        "slot": "7",
        "type": "t_mapping(t_address,t_struct(User)820_storage)"
      },
      {
        "astId": 867,
        "contract": "contracts/AMMController.sol:AMMController",
        "label": "usedUsernames",
        "offset": 0,
        "slot": "8",
        "type": "t_mapping(t_string_memory_ptr,t_bool)"
      },
      {
        "astId": 873,
        "contract": "contracts/AMMController.sol:AMMController",
        "label": "userTokenBalance",
        "offset": 0,
        "slot": "9",
        "type": "t_mapping(t_address,t_mapping(t_address,t_uint256))"
      },
      {
        "astId": 877,
        "contract": "contracts/AMMController.sol:AMMController",
        "label": "userStableCurrencyBalance",
        "offset": 0,
        "slot": "10",
        "type": "t_mapping(t_address,t_uint256)"
      },
      {
        "astId": 881,
        "contract": "contracts/AMMController.sol:AMMController",
        "label": "tokens",
        "offset": 0,
        "slot": "11",
        "type": "t_mapping(t_uint256,t_address)"
      },
      {
        "astId": 885,
        "contract": "contracts/AMMController.sol:AMMController",
        "label": "tokenToPool",
        "offset": 0,
        "slot": "12",
        "type": "t_mapping(t_address,t_address)"
      }
    ],
    "types": {
      "t_address": {
        "encoding": "inplace",
        "label": "address",
        "numberOfBytes": "20"
      },
      "t_bool": {
        "encoding": "inplace",
        "label": "bool",
        "numberOfBytes": "1"
      },
      "t_mapping(t_address,t_address)": {
        "encoding": "mapping",
        "key": "t_address",
        "label": "mapping(address => address)",
        "numberOfBytes": "32",
        "value": "t_address"
      },
      "t_mapping(t_address,t_mapping(t_address,t_uint256))": {
        "encoding": "mapping",
        "key": "t_address",
        "label": "mapping(address => mapping(address => uint256))",
        "numberOfBytes": "32",
        "value": "t_mapping(t_address,t_uint256)"
      },
      "t_mapping(t_address,t_struct(User)820_storage)": {
        "encoding": "mapping",
        "key": "t_address",
        "label": "mapping(address => struct AMMController.User)",
        "numberOfBytes": "32",
        "value": "t_struct(User)820_storage"
      },
      "t_mapping(t_address,t_uint256)": {
        "encoding": "mapping",
        "key": "t_address",
        "label": "mapping(address => uint256)",
        "numberOfBytes": "32",
        "value": "t_uint256"
      },
      "t_mapping(t_string_memory_ptr,t_bool)": {
        "encoding": "mapping",
        "key": "t_string_memory_ptr",
        "label": "mapping(string => bool)",
        "numberOfBytes": "32",
        "value": "t_bool"
      },
      "t_mapping(t_uint256,t_address)": {
        "encoding": "mapping",
        "key": "t_uint256",
        "label": "mapping(uint256 => address)",
        "numberOfBytes": "32",
        "value": "t_address"
      },
      "t_string_memory_ptr": {
        "encoding": "bytes",
        "label": "string",
        "numberOfBytes": "32"
      },
      "t_string_storage": {
        "encoding": "bytes",
        "label": "string",
        "numberOfBytes": "32"
      },
      "t_struct(User)820_storage": {
        "encoding": "inplace",
        "label": "struct AMMController.User",
        "members": [
          {
            "astId": 815,
            "contract": "contracts/AMMController.sol:AMMController",
            "label": "id",
            "offset": 0,
            "slot": "0",
            "type": "t_uint256"
          },
          {
            "astId": 817,
            "contract": "contracts/AMMController.sol:AMMController",
            "label": "username",
            "offset": 0,
            "slot": "1",
            "type": "t_string_storage"
          },
          {
            "astId": 819,
            "contract": "contracts/AMMController.sol:AMMController",
            "label": "isRegistered",
            "offset": 0,
            "slot": "2",
            "type": "t_bool"
          }
        ],
        "numberOfBytes": "96"
      },
      "t_uint256": {
        "encoding": "inplace",
        "label": "uint256",
        "numberOfBytes": "32"
      }
    }
  }
}